:020000040800F2
:10000000680800209D010008852B0008C525000810
:10001000812B0008E501000895330008000000006E
:100020000000000000000000000000006F2C00082D
:100030008902000800000000C12B0008712C000894
:10004000B7010008B7010008B7010008B7010008B0
:10005000B7010008B7010008B7010008B7010008A0
:10006000B7010008B7010008B7010008B701000890
:10007000E9010008F9010008090200081902000856
:10008000B7010008B7010008B7010008B701000870
:10009000B7010008B7010008B7010008B701000860
:1000A000B7010008B7010008B7010008C12D00081A
:1000B000B7010008B7010008B7010008B701000840
:1000C000B7010008B7010008B7010008B701000830
:1000D000492C000875330008B70100088533000873
:1000E000B7010008B7010008B7010008B701000810
:1000F000B7010008B7010008000000000000000080
:100100000000000000000000B7010008B70100086F
:100110000000000000000000D12D0008B701000819
:10012000B7010008B701000829020008B70100085C
:1001300039020008C52B0008B7010008D52B0008BC
:10014000B7010008000000000000000000000000EF
:10015000000000000000000000000000000000009F
:100160000000000000000000B7010008B70100080F
:10017000B701000800000000B701000800000000FF
:1001800000000000B7010008DFF80CD000F018F8FC
:1001900000480047BB330008680800200648804735
:1001A00006480047FEE7FEE7FEE7FEE7FEE7FEE75C
:1001B000FEE7FEE7FEE7FEE7452D0008890100089F
:1001C000064C074D06E0E06840F0010394E80700A4
:1001D00098471034AC42F6D3FFF7DAFF2834000812
:1001E0004834000800BFFEE710B5024800F048F9A7
:1001F00010BD00002004002010B5024800F040F9B6
:1002000010BD0000DC03002010B5024800F038F9F2
:1002100010BD00007402002010B5024800F030F953
:1002200010BD0000B802002010B5024800F028F907
:1002300010BD00008801002010B5024800F020F930
:1002400010BD0000CC0100200D4A016891420BD284
:100250000C4A0168891A1422B1FBF2F18900016489
:1002600008490839C1630AE0054A0168891A14225D
:10027000B1FBF2F18900016401490839C16370479B
:1002800008040240080002407047704770B50346FA
:100290000024002500BF5879012801D1022070BD3B
:1002A0000120587100BF022018711868046840F6D8
:1002B000FE7090408443D1E9000640EA060505FA45
:1002C00002F004431868046018680668C020904073
:1002D0008643186806600120187100BF002058711D
:1002E00000BF00BFDBE7704710B504462068006818
:1002F00000F40050B0F5005F19D12068406B00F4A5
:100300000050B0F5005F12D104202071206940F048
:10031000010020614FF400502168486320680068A4
:1003200020F48050216808602046FFF7DCFF206839
:10033000006800F00050B0F1005F19D12068406BF8
:1003400000F00050B0F1005F12D10420207120694C
:1003500040F0020020614FF000502168486320689F
:10036000006820F08050216808602046FFF78DFF6C
:1003700010BD10B504460CB9012010BD207920B97C
:1003800000206071204600F009F802202071002052
:100390002061012020710020EFE7000010B586B039
:1003A00004461E492068884219D100BF1C48C06914
:1003B00040F000501A49C8610846C06900F000507A
:1003C000009000BF00BF3020019003200290002069
:1003D000039001A94FF0904000F008F91CE011498A
:1003E0002068884218D100BF0D48C06940F0806085
:1003F0000B49C8610846C06900F08060009000BFEA
:1004000000BF40200190032002900020039001A92A
:100410004FF0904000F0EAF806B010BD00740040C4
:10042000001002400098004070B50446002594F882
:100430002100022803D00420A06301251EE02068CB
:10044000006820F00E00216808602068006820F035
:1004500001002168086094F8401001208840E16B99
:100460004860012084F8210000BF002084F82000AB
:1004700000BF606B10B12046616B8847284670BD95
:1004800070B50446E06B05682068066894F8401073
:10049000042088402840D0B106F00400B8B120689C
:1004A000006800F0200028B92068006820F00400EF
:1004B0002168086094F8401004208840E16B48608F
:1004C000E06A00284ED02046E16A88474AE094F866
:1004D000401002208840284008B306F00200F0B126
:1004E0002068006800F0200040B92068006820F013
:1004F0000A0021680860012084F8210094F8401067
:1005000002208840E16B486000BF002084F8200092
:1005100000BFA06A30B32046A16A884722E094F861
:100520004010082088402840E0B106F00800C8B11B
:100530002068006820F00E002168086094F84010E0
:1005400001208840E16B48600120A06384F821000D
:1005500000BF002084F8200000BF206B10B12046AF
:10056000216B884770BD70B5044600250CB9012089
:1005700070BD022084F821002068056843F6F07001
:100580008543D4E901010843E16808432169084330
:1005900061690843A1690843E1690843054320688C
:1005A00005602046FFF750FE0020A062E062206355
:1005B0006063A063012084F82100002084F82000FB
:1005C00000BFD5E770B5044600F0FCF806462546A6
:1005D000681C10B104480078054400BF00F0F2F830
:1005E000801BA842FAD370BD0800002078B50346EE
:1005F000002200240020CBE0012696400D6805EA89
:100600000604002C72D04D68022D02D04D68122DC8
:1006100013D1D60803F1200555F826005507EE0E34
:100620000F25B540A8435607F60E0D69B54028437F
:10063000D60803F1200545F8260018685600032562
:10064000B540A8430D7905F003055600B540284391
:1006500018604D68012D08D04D68022D05D04D68F9
:10066000112D02D04D68122D13D198685600032524
:10067000B540A8435600CD68B540284398605868F7
:1006800001259540A8430D79C5F3001595402843F1
:100690005860D86856000325B540A84356008D68B9
:1006A000B5402843D8604D6805F08055B5F1805FAE
:1006B0006DD100BF394DAD6945F00105374EB561CB
:1006C0003546AD6905F00105009500BF00BF4FEA52
:1006D000B635960855F8260095072E0F0F25B5401C
:1006E000A843B3F1904F02D1002515E04FE02C4D07
:1006F000AB4201D101250FE02A4DAB4201D10225C9
:100700000AE0294DAB4201D1032505E0274DAB425C
:1007100001D1042500E005259607360FB540284392
:10072000234D960845F82600224D2868A0434D68C1
:1007300005F48035B5F5803F00D120431D4D28607C
:100740002D1D2868A0434D6805F40035B5F5003F20
:1007500000D12043174D2D1D28602D1D2868A04372
:100760004D6805F48015B5F5801F00D12043114D6B
:10077000083528602D1D2868A0434D6805F4001534
:10078000B5F5001F00D120430A4D0C352860521CDE
:100790000D68D540002D7FF42FAF78BD00100240CA
:1007A0000004004800080048000C00480010004801
:1007B00008000140000401400AB1816100E081624B
:1007C00070470000014800687047000000000020EA
:1007D00003480068034909780844014908607047E4
:1007E000000000200800002010B50848006840F014
:1007F000100006490860032000F0C4F8002000F053
:1008000007F800F02BF8002010BD00000020024087
:1008100070B504460E4800784FF47A71B1FBF0F0E1
:100820000C490968B1FBF0F5284601F010FD08B14C
:10083000012070BD102C07D200222146501E00F06E
:1008400062F80548046001E00120F2E70020F0E7CB
:10085000080000200C0000200400002008B500BFA4
:100860002148806940F001001F498861084680697D
:1008700000F00100009000BF00BF00BF0846C06943
:1008800040F08050C8610846C06900F08050009078
:1008900000BF00BF032000F075F8002211466FF082
:1008A0000B0000F030F8002211466FF00A0000F053
:1008B0002AF8002211466FF0090000F024F8002207
:1008C0001146501F00F01FF800221146101F00F0C3
:1008D0001AF800221146901E00F015F80022114669
:1008E000501E00F010F808BD0010024000BF00F0DC
:1008F0001F02012191404209920002F1E022C2F858
:10090000001100BF70472DE9F05F80460D46164686
:10091000002702F039F9074639462A46334601F0E6
:100920000700C0F1070ABAF1040F02D94FF0040A18
:1009300001E0C0F1070AD14600F1040ABAF1070F3D
:1009400002D24FF0000A01E0A0F1030AD4464FF0B2
:10095000010A0AFA09FAAAF1010A0AEA020A0AFADB
:100960000CFA4FF0010B0BFA0CFBABF1010B0BEA8D
:10097000030B4AEA0B042146404602F00DF9BDE89C
:10098000F09F000000BF00F00702064B19684FF609
:10099000FF031940044B0B4343EA0221014B19604A
:1009A00000BF70470CED00E00000FA0508B500BF7D
:1009B0000949C96941F08051074AD1611146C969A5
:1009C00001F08051009100BF00BF04490968014354
:1009D000024A116008BD0000001002400070004093
:1009E000F8B5044600260025206800F48030B0F5F4
:1009F000803F75D100279648C06900F0805070B9DB
:100A000000BF9348C06940F080509149C8610846D2
:100A1000C06900F08050009000BF00BF01278D48E2
:100A2000006800F48070B0B98A48006840F48070B3
:100A300088490860FFF7C6FE064606E0FFF7C2FEDB
:100A4000801B642801D90320F8BD8248006800F4A7
:100A500080700028F2D07E48006A00F44075002DB6
:100A60006CD0A08800F44070A84267D07848006A33
:100A700020F440750120010491FAA1F1B1FA81F14D
:100A8000754A02EB8101C1F8000400204FF4803167
:100A900091FAA1F1B1FA81F102EB8101C1F80004F0
:100AA0006B48056205F00100B8B3FFF78BFE064600
:100AB00008E0FFF787FE801B41F28831884201D9A8
:100AC0000320C1E74020022191FAA1F1B1FA81F19E
:100AD00008430121B1EB601F03D15D4800681FE0AE
:100AE0003CE04020022191FAA1F1B1FA81F10843E2
:100AF0000221B1EB601F02D15548006A10E040208E
:100B0000022191FAA1F1B1FA81F108430421B1EB7C
:100B1000601F03D14E48406802E00FE04C48406A35
:100B20004021022292FAA2F2B2FA82F2114301F0BB
:100B30001F020121914008400028BAD04448006AB1
:100B400020F440706168084341490862012F04D1D4
:100B50000846C06920F08050C86100BF207800F0CE
:100B6000010038B13A48006B20F00300A168084347
:100B700037490863207800F00200022807D1344882
:100B8000006B20F44030E168084331490863207865
:100B900000F00400042807D12D48006B20F4402009
:100BA000216908432A490863207800F020002028A2
:100BB00007D12748006B20F01000616908432449E1
:100BC0000863206800F40030B0F5003F07D12048EA
:100BD000406820F48000A16A08431D4948602078DD
:100BE00000F04000402807D11948006B20F0200099
:100BF000A169084316490863207800F08000802826
:100C000007D11348406820F44040E1690843104987
:100C10004860208800F40060B0F5006F07D10C48F0
:100C2000406820F07840216A0843094948602088DC
:100C300000F48060B0F5806F07D10548006B20F0AC
:100C40004000616A0843024908630020FCE6000096
:100C500000100240007000400000424270B504469F
:100C60000D460026B448006800F00700A8420ED2E6
:100C7000B148006820F007002843AF4908600846E3
:100C8000006800F00700A84201D0012070BD207864
:100C900000F00200022807D1A848406820F0F000C8
:100CA000A1680843A5494860207800F001000028A9
:100CB0007CD0606801283BD12020010391FAA1F18A
:100CC000B1FA81F108430121B1EB601F02D19B48C9
:100CD00000681DE02020010391FAA1F1B1FA81F131
:100CE00008430221B1EB601F02D19448006A0FE073
:100CF0002020010391FAA1F1B1FA81F10843042106
:100D0000B1EB601F02D18D48406801E08B48406A1A
:100D100020210A0392FAA2F2B2FA82F2114301F000
:100D20001F0201219140084000287CD10120ADE73D
:100D3000606802283BD12020010591FAA1F1B1FAA7
:100D400081F108430121B1EB601F02D17B480068AB
:100D50001DE02020010591FAA1F1B1FA81F10843CB
:100D60000221B1EB601F02D17448006A0FE020201D
:100D7000010591FAA1F1B1FA81F108430421B1EB27
:100D8000601F02D16D48406801E06C48406A202134
:100D90000A0592FAA2F2B2FA82F2114301F01F029E
:100DA000012191400840E8BB01206FE77EE0202050
:100DB000022191FAA1F1B1FA81F108430121B1EBCD
:100DC000601F02D15D4800681DE02020022191FAD9
:100DD000A1F1B1FA81F108430221B1EB601F02D108
:100DE0005648006A0FE02020022191FAA1F1B1FAE1
:100DF00081F108430421B1EB601F02D14F484068E4
:100E000001E04E48406A2021022292FAA2F2B2FA90
:100E100082F2114301F01F0201219140084008B9FC
:100E2000012033E7FFE74548406820F00300616890
:100E3000084342494860FFF7C5FC06466068012840
:100E400010D108E0FFF7BEFC801B41F288318842D8
:100E500001D903201AE73948406800F00C00042843
:100E6000F0D123E06068022810D108E0FFF7AAFC67
:100E7000801B41F28831884201D9032006E72F48C0
:100E8000406800F00C000828F0D10FE008E0FFF700
:100E900099FC801B41F28831884201D90320F5E694
:100EA0002648406800F00C000028F0D12248006875
:100EB00000F00700A8420ED91F48006820F0070084
:100EC00028431D4908600846006800F00700A84252
:100ED00001D00120DAE6207800F00400042807D1D0
:100EE0001648406820F4E060E16808431349486010
:100EF000207800F00800082808D11048406820F445
:100F00006050216940EAC1000C49486000F04EF889
:100F10000A49496801F0F001F02292FAA2F2B2FA0D
:100F200082F2D140064A515CC84006490860002060
:100F3000FFF76EFC0020A9E60020024000100240EE
:100F40000E3400080C0000200148006870470000C3
:100F50000C00002000B5FFF7F7FF0749496801F4CE
:100F6000E0614FF4E06292FAA2F2B2FA82F2D1406A
:100F7000024A515CC84000BD001002401E34000807
:100F800000B5FFF7E1FF0749496801F460514FF4EC
:100F9000605292FAA2F2B2FA82F2D140024A515C55
:100FA000C84000BD001002401E34000870B500218A
:100FB00000240022002300201A4D696801F00C056E
:100FC00065B3042D02D0082D27D101E0164827E093
:100FD00001F470154FF4701696FAA6F6B6FA86F676
:100FE000F540124E735D0F4DED6A05F00F050F26AB
:100FF00096FAA6F6B6FA86F6F5400D4E745D01F443
:1010000080352DB1084DB5FBF4F505FB03F202E088
:10101000084D03FB05F2104602E000BF024800BF86
:1010200000BF70BD0010024000127A00EE330008CD
:10103000FE33000800093D00F8B50446002520787D
:1010400000F0010000287BD0FA48406800F00C0056
:1010500004280CD0F748406800F00C00082845D15F
:10106000F448406800F48030B0F5803F3ED1202045
:10107000010391FAA1F1B1FA81F108430121B1EB29
:10108000601F02D1EB4800681DE02020010391FAA7
:10109000A1F1B1FA81F108430221B1EB601F02D145
:1010A000E448006A0FE02020010391FAA1F1B1FAAF
:1010B00081F108430421B1EB601F02D1DD48406893
:1010C00001E0DC48406A20210A0392FAA2F2B2FA57
:1010D00082F2114301F01F020121914008400028D3
:1010E000B1D0606800282BD10120F8BD00BF606836
:1010F000B0F5803F06D1CF48006840F48030CD493C
:10110000086029E0606858B9CA48006820F4803057
:10111000C84908600846006820F4802008601BE089
:101120006068B0F5A02F0CD1C248006840F4802060
:10113000C04908600846006840F4803008600BE051
:10114000A1E0BC48006820F48030BA490860084635
:10115000006820F48020086000BFB648C06A20F014
:101160000F00A1680843B349C8626068A0B3FFF7E5
:1011700029FB054606E0FFF725FB401B642801D943
:101180000320B2E72020010391FAA1F1B1FA81F125
:1011900008430121B1EB601F02D1A64800681EE0A0
:1011A0002020010391FAA1F1B1FA81F10843022153
:1011B000B1EB601F02D19F48006A10E020200103BC
:1011C00091FAA1F1B1FA81F108430421B1EB601F5A
:1011D00003D19848406802E010E09648406A202118
:1011E0000A0392FAA2F2B2FA82F2114301F01F024C
:1011F0000121914008400028BDD044E0FFF7E2FA09
:10120000054606E0FFF7DEFA401B642801D90320FB
:101210006BE72020010391FAA1F1B1FA81F10843B3
:101220000121B1EB601F02D1824800681DE020203F
:10123000010391FAA1F1B1FA81F108430221B1EB66
:10124000601F02D17B48006A0FE02020010391FA61
:10125000A1F1B1FA81F108430421B1EB601F02D181
:101260007448406801E07348406A20210A0392FAFA
:10127000A2F2B2FA82F2114301F01F020121914061
:1012800008400028BED1207800F0020002285CD17E
:101290006848406800F00C0050B16648406800F0B3
:1012A0000C00082852D16348406800F48030E8BB45
:1012B0002020022191FAA1F1B1FA81F10843012124
:1012C000B1EB601F02D15B4800681DE020200221C5
:1012D00091FAA1F1B1FA81F108430221B1EB601F4B
:1012E00002D15448006A0FE02020022191FAA1F1B6
:1012F000B1FA81F108430421B1EB601F02D14D48DE
:10130000406801E04B48406A2021022292FAA2F292
:10131000B2FA82F2114301F01F020121914008400C
:1013200028B12069012802D00120DEE60EE0414804
:10133000006820F0F800F82292FAA2F2B2FA82F2E3
:101340006169914008433B490860B1E0206970B38E
:10135000012191FAA1F0B0FA80F0374A42F820104A
:10136000FFF730FA054606E0FFF72CFA401B02288B
:1013700001D90320B9E62020022191FAA1F1B1FAA6
:1013800081F108430121B1EB601F02D129480068B7
:101390001EE02020022191FAA1F1B1FA81F1084367
:1013A0000221B1EB601F03D12248006A10E02CE05B
:1013B0002020022191FAA1F1B1FA81F10843042120
:1013C000B1EB601F02D11B48406801E01948406A38
:1013D0002021022292FAA2F2B2FA82F2114301F023
:1013E0001F020121914008400028BDD0114800682B
:1013F00020F0F800F82292FAA2F2B2FA82F26169C1
:10140000914008430B49086052E00020012191FA05
:10141000A1F1B1FA81F1084A42F82100FFF7D2F9AF
:1014200005460BE0FFF7CEF9401B022806D9032042
:101430005BE6000000100240000042422020022132
:1014400091FAA1F1B1FA81F108430121B1EB601FDA
:1014500002D1FB4800681DE02020022191FAA1F191
:10146000B1FA81F108430221B1EB601F02D1F448C7
:10147000006A0FE02020022191FAA1F1B1FA81F176
:1014800008430421B1EB601F02D1ED48406801E040
:10149000EB48406A2021022292FAA2F2B2FA82F2CA
:1014A000114301F01F020121914008400028B9D1E9
:1014B000207800F00800082851D1A06980B30120ED
:1014C00090FAA0F1B1FA81F1DE4A02EB8101C1F894
:1014D0008004FFF777F9054606E0FFF773F9401B34
:1014E000022801D9032000E66020022191FAA1F12F
:1014F000B1FA81F108430121B1EB601F02D1D0485C
:1015000000681EE06020022191FAA1F1B1FA81F198
:1015100008430221B1EB601F03D1C948006A10E003
:101520001EE06020022191FAA1F1B1FA81F1084395
:101530000421B1EB601F02D1C148406801E0C048FE
:10154000406A6021022292FAA2F2B2FA82F21143B8
:1015500001F01F020121914008400028BDD04FE05A
:101560000020012191FAA1F1B1FA81F1B54A02EB13
:101570008101C1F88004FFF725F9054606E0FFF771
:1015800021F9401B022801D90320AEE56020022189
:1015900091FAA1F1B1FA81F108430121B1EB601F89
:1015A00002D1A74800681DE06020022191FAA1F154
:1015B000B1FA81F108430221B1EB601F02D1A048CA
:1015C000006A0FE06020022191FAA1F1B1FA81F1E5
:1015D00008430421B1EB601F02D19948406801E043
:1015E0009748406A6021022292FAA2F2B2FA82F28D
:1015F000114301F01F020121914008400028BED193
:10160000207800F00400042873D100268C48C069BB
:1016100000F0805070B900BF8948C06940F0805028
:101620008749C8610846C06900F08050009000BF3B
:1016300000BF01268448006800F48070B0B9824879
:10164000006840F4807080490860FFF7BBF80546E9
:1016500006E0FFF7B7F8401B642801D9032044E5F2
:101660007948006800F480700028F2D000BFE0687C
:10167000012806D17248006A40F0010070490862F2
:1016800027E0E06858B96E48006A20F001006C4914
:1016900008620846006A20F00400086219E0E06869
:1016A00005280BD16648006A40F0040064490862CE
:1016B0000846006A40F0010008620AE06048006ADB
:1016C00020F001005E4908620846006A20F004002C
:1016D000086200BFE068B8B3FFF774F8054609E098
:1016E000FFF770F8401B41F28831884202D903208D
:1016F000FBE48BE04020022191FAA1F1B1FA81F1E3
:1017000008430121B1EB601F02D14D4800681EE083
:101710004020022191FAA1F1B1FA81F1084302219E
:10172000B1EB601F02D14648006A10E04020022160
:1017300091FAA1F1B1FA81F108430421B1EB601FE4
:1017400003D13F48406802E010E03D48406A402134
:10175000022292FAA2F2B2FA82F2114301F01F02BF
:101760000121914008400028BAD046E0FFF72AF84E
:10177000054608E0FFF726F8401B41F28831884211
:1017800001D90320B1E44020022191FAA1F1B1FA7C
:1017900081F108430121B1EB601F02D128480068A4
:1017A0001DE04020022191FAA1F1B1FA81F1084334
:1017B0000221B1EB601F02D12148006A0FE04020F6
:1017C000022191FAA1F1B1FA81F108430421B1EBB0
:1017D000601F02D11A48406801E01948406A402160
:1017E000022292FAA2F2B2FA82F2114301F01F022F
:1017F0000121914008400028BCD1012E05D110489C
:10180000C06920F080500E49C86100BFE06900281F
:1018100074D00B48406800F00C0008286FD0E069D5
:1018200002286DD100204FF0807191FAA1F1B1FA38
:1018300081F1044A42F82100FEF7C4FF05460CE09E
:10184000001002400000424200700040FEF7BAFF64
:10185000401B022801D9032047E42020010591FA0A
:10186000A1F1B1FA81F108430121B1EB601F02D16E
:101870006F4800681DE02020010591FAA1F1B1FA3E
:1018800081F108430221B1EB601F02D16848006A70
:101890000FE02020010591FAA1F1B1FA81F108438E
:1018A0000421B1EB601F02D16148406801E060484B
:1018B000406A20210A0592FAA2F2B2FA82F211439A
:1018C00001F01F020121914008400028BED1D4E957
:1018D000081008435649496821F4741108435449D3
:1018E00048600121080690FAA0F0B0FA80F0514A51
:1018F00042F82010FEF766FF054609E095E092E009
:1019000041E0FEF75FFF401B022801D9032038E4C5
:101910002020010591FAA1F1B1FA81F108430121DA
:10192000B1EB601F02D1424800681DE02020010594
:1019300091FAA1F1B1FA81F108430221B1EB601FE4
:1019400002D13B48006A0FE02020010591FAA1F185
:10195000B1FA81F108430421B1EB601F02D1344890
:10196000406801E03248406A20210A0592FAA2F25A
:10197000B2FA82F2114301F01F02012191400840A6
:101980000028BED051E000214FF0807090FAA0F006
:10199000B0FA80F0274A42F82010FEF713FF054600
:1019A00006E0FEF70FFF401B022801D903202FE4B9
:1019B0002020010591FAA1F1B1FA81F1084301213A
:1019C000B1EB601F02D11A4800681DE0202001051C
:1019D00091FAA1F1B1FA81F108430221B1EB601F44
:1019E00002D11348006A0FE02020010591FAA1F10D
:1019F000B1FA81F108430421B1EB601F02D10C4818
:101A0000406801E00A48406A20210A0592FAA2F2E1
:101A1000B2FA82F2114301F01F0201219140084005
:101A20000028BED101E001207FE400207DE4000019
:101A300000100240000042422DE9F04104460D46EC
:101A400016464FF00008002794F83C00012802D009
:101A50004FF0010823E0204601F0C4F828B1FF2030
:101A600084F83C004FF0030819E00E48854211D07D
:101A70002F0C2068006CBA00032191408843216834
:101A800008642068006CB90006FA01F10843216877
:101A9000086401E020684664204601F0BFF8404633
:101AA000BDE8F0810001080070477047704710B52D
:101AB00004462068806800F0080008281ED12068CD
:101AC000006800F00800082818D12046FFF7EDFF55
:101AD000A069002811D1A06A0028FBD12068006805
:101AE00020F018002168086094F83C00032801D118
:101AF000012000E0042084F83C007BE0206880683E
:101B000000F00200022829D12068006800F00200DD
:101B1000022823D1204600F0F4F8606A401E60627B
:101B2000606A08B9206A6062E069002862D1E06AF0
:101B300000285FD1D4E9081088425BD12068006892
:101B400020F006002168086094F83C00042801D1C8
:101B5000012000E0032084F83C004BE0206880680E
:101B600000F00100B8B12068006800F0010090B1F9
:101B70002068006820F00100216808602068C068C3
:101B800040F001002168C8602046FFF78DFF01206A
:101B900084F83C002EE02068806800F010001028D7
:101BA00011D12068006800F0100010280BD12068C7
:101BB000C06840F010002168C86001202064204601
:101BC000FFF774FF16E02068806800F00400042826
:101BD00010D12068006800F0040004280AD12068B1
:101BE000C06840F004002168C860022020642046DC
:101BF000FFF75CFF10BD000010B504460CB90120D2
:101C000010BD0020A061E061012020626062002020
:101C1000A062E0624FF40050206300206063A06384
:101C20002064204600F06EF82068006820F4E05040
:101C300021680860E1686068084321680968084312
:101C4000216808602068406820F080702168486042
:101C500020684068A168084321684860134800680C
:101C600000F44071206981420ED01048006820F4D1
:101C700040700E49086008460068216908430B4916
:101C800008600220FEF79EFC2068406840F00100DA
:101C90002168486000BF2068806800F40040002888
:101CA000F9D1012084F83C000020A9E70060014040
:101CB0002DE9F04104460D461646002794F83C00F5
:101CC000D8B194F83C00FF2817D0A8B22168486129
:101CD000012E06D12068406840F02000216848604D
:101CE00005E02068406820F0200021684860E66137
:101CF000284600F09AFF206200E001273846BDE840
:101D0000F081704710B586B0044647492068884284
:101D10003FD100BF4548806940F0807043498861E9
:101D20000846806900F08070009000BF00BF03206B
:101D3000019002900020039001A93D48FEF756FC57
:101D40004FF440700190032002900020039001A9FD
:101D50003848FEF74BFC3848384908600020486096
:101D60000021364881608021C160490001618900FD
:101D70004161202181610021C161FEF7F4FB18B1AE
:101D8000DC212FA001F008FB00BF2C4860614462F9
:101D900047E030492068884243D100BF234880692A
:101DA00040F08060214988610846806900F08060C9
:101DB000009000BF00BF4FF440400190032002900C
:101DC0000020039001A91A48FEF710FC4FF4807020
:101DD0000190032002900020039001A91E48FEF705
:101DE00005FC154828301D49086000204860002186
:101DF0001A4881608021C160490001618900416108
:101E0000202181610021C161FEF7ADFB20B14FF4BB
:101E100084710BA001F0C0FA00BF104860614462F9
:101E200000BF06B010BD000000600140001002407D
:101E300000040048001000483004024088010020DF
:101E40002E2E2F436F72652F5372632F736461645C
:101E5000632E630000680140000C0048CC010020A4
:101E60002DE9F04105460E4614460027B84695F880
:101E70003C00012801D0012718E0284600F0B2FEFE
:101E800020B1FF2085F83C0003270FE028682030B0
:101E900000EB8608D4E900010843A1680843E16823
:101EA0000843C8F80000284600F0B8FE3846BDE8F0
:101EB000F08170B504460D46002694F83C000128D8
:101EC00017D1204600F08EFE20B1FF2084F83C00A0
:101ED00003260FE02068406820F040002168486039
:101EE00020684068284321684860204600F096FE3C
:101EF00000E00126304670BD10B5024600200C4CB3
:101F00001368A34203D1012901D101200EE092F808
:101F10003C30012B07D092F83C30022B03D092F8D2
:101F20003C30032B01D1D16200E0012010BD000044
:101F30000060014070470000F8B50446206846681C
:101F40002068856805F0400048B905F0010030B10F
:101F500006F0400018B12046E16C8847F8BD05F056
:101F6000020030B106F0800018B12046216D88478C
:101F7000F4E705F4B070002877D006F020000028C0
:101F800073D005F04000F0B194F85D0003280ED046
:101F9000206E40F00400206600BF00200090206802
:101FA000C068009020688068009000BF0BE000BF10
:101FB000002000902068C068009020688068009031
:101FC00000BF00BFCAE705F0200088B1206E40F0D6
:101FD0000100206600BF002000902068806800900B
:101FE0002068006820F040002168086000BF00BF42
:101FF00005F4807058B1206E40F00800206600BFE4
:102000000020009020688068009000BF00BF206E14
:1020100028B32068406820F0E00021684860012073
:1020200084F85D0006F00200022802D006F00100EC
:10203000B8B12068406820F0030021684860A06DB6
:1020400028B10B48A16D4863A06DFEF7EDF9606DF6
:1020500028B10748616D4863606DFEF7E5F903E05C
:1020600003E02046FFF766FF78E700BF76E7000051
:10207000592C000870B504460CB9012070BD606A87
:1020800000B900BF0021A16294F85D0028B90020CA
:1020900084F85C00204600F053F8022084F85D00CC
:1020A0002068006820F0400021680860E068B0F512
:1020B000E06F01D9002501E04FF48055E068B0F5EC
:1020C000706F05D0E068B0F5E06F01D00021A1622B
:1020D000206B40B9E068B0F5E06F02D902212163BE
:1020E00001E001212163D4E901010843216908438A
:1020F00061690843218B01F400710843E1690843D9
:10210000216A0843A16A0843216808600421A06984
:1021100001EA1040616A0843616B0843E1680843C3
:102120002843216848602068C06920F40060216865
:10213000C86100202066012084F85D0000209DE732
:1021400010B586B004462D492068884254D100BF9E
:102150002B48C06940F480402949C8610846C069DD
:1021600000F48040009000BF00BF4FF47060019009
:102170000220029000200390032004900520059087
:1021800001A94FF09040FEF731FA1E481E49086041
:102190000020486000211C4881608021C16000212E
:1021A000016141618161C161FEF7DDF918B1712101
:1021B00016A001F0F1F800BF1348A065446200BF0B
:1021C0001048143016490860102048600021144857
:1021D00081608021C1600021016141618161C16133
:1021E000FEF7C1F918B1812108A001F0D5F800BFB0
:1021F0000B486065446200BF06B010BD0038004067
:102200000010024044000240740200202E2E2F4392
:102210006F72652F5372632F7370692E6300000015
:10222000B8020020042808D14FF0E021096941F0EC
:1022300004014FF0E022116107E04FF0E02109694D
:1022400021F004014FF0E02211617047704770B532
:1022500004462546681EB0F1807F01D301200FE0BF
:10226000681E4FF0E02148610F214FF0FF3000F071
:1022700093FC00204FF0E0218861072008610020D6
:1022800070BD10B5FFF7E2FF10BD7047704700004A
:102290002DE9F04104462068C5692068066805F00C
:1022A0000F08B8F1000F0AD105F0200038B106F090
:1022B000200020B1204600F075FEBDE8F0812068C6
:1022C0008768B8F1000F7DD007F0010018B906F457
:1022D0009070002876D005F0010048B106F48070B7
:1022E00030B1012021680862E06E40F00100E06634
:1022F00005F0020048B107F0010030B1022021686A
:102300000862E06E40F00400E06605F0040048B1A9
:1023100007F0010030B1042021680862E06E40F04F
:102320000200E06605F0080060B106F0200010B978
:1023300007F0010030B1082021680862E06E40F02B
:102340000800E066E06E68B305F0200028B106F0F2
:10235000200010B1204600F025FEE06E00F00800DD
:1023600028B92068806800F04000402824D1204629
:1023700000F0F8FD2068806800F04000402817D188
:102380002068806820F0400021688860606E58B145
:102390002148616E4863606EFEF746F810B1606ECA
:1023A000416B88470DE00DE02046FFF76FFF08E026
:1023B0002046FFF76BFF04E02046FFF767FF002091
:1023C000E0667AE705F4801078B107F4800060B128
:1023D0004FF4801021680862202084F8690084F896
:1023E0006A002046FFF751FF67E705F0800030B133
:1023F00006F0800018B1204600F050FF5DE705F0C0
:10240000400030B106F0400018B1204600F0BAFD9F
:1024100053E700BF51E700004D2F000810B50446F8
:102420000CB9012010BDA06900B100E000BF94F814
:10243000690028B9002084F86800204600F02AF8D6
:10244000242084F869002068006820F001002168D9
:102450000860204600F0ECFD012800D1E2E7606A48
:1024600010B1204600F0BCFC2068406820F4904089
:10247000216848602068806820F02A002168886010
:102480002068006840F0010021680860204600F0E4
:1024900023FDC7E710B586B004463D492068884251
:1024A0001CD100BF3B48806940F4804039498861B5
:1024B0000846806900F48040009000BF00BFC02043
:1024C0000190022002900020039003200490072036
:1024D000059001A93048FEF789F857E02F49206898
:1024E000884253D100BF2B48C06940F4802029495D
:1024F000C8610846C06900F48020009000BF00BF9A
:102500004FF44070019002200290002003900320BD
:1025100004900720059001A91F48FEF767F820489E
:10252000204908600020486000211E488160802109
:10253000C1600021016141618161C161FEF713F851
:1025400018B19C2118A000F027FF00BF1548606655
:10255000446200BF124814381849086010204860CF
:102560000021164881608021C16000210161416124
:102570008161C161FDF7F7FF18B1AC210AA000F03D
:102580000BFF00BF0D482066446200BF06B010BDBF
:10259000003801400010024000040048004800409C
:1025A00030000240DC0300202E2E2F436F72652F77
:1025B0005372632F75736172742E630020040020C0
:1025C0007047704700BFFEE70EB51148114908601B
:1025D0000846FDF7CEFE18B13E210FA000F0DCFE4C
:1025E000002000900190002269460A48FDF74EFE47
:1025F00018B1472108A000F0CFFE10226946054817
:10260000FDF744FE18B14E2103A000F0C5FE0EBD3B
:1026100000740040100000202E2E2F436F72652F93
:102620005372632F6461632E630000000EB50C4883
:102630000C4908600846FDF79CFE18B15C210AA011
:1026400000F0AAFE00200090019000226946054893
:10265000FDF71CFE18B1652103A000F09DFE0EBD24
:1026600000980040240000202E2E2F436F72652F0B
:102670005372632F6461632E6300000008B500BFCE
:102680001548406940F00100134948610846406917
:1026900000F00100009000BF00BF00BF0846406985
:1026A00040F0020048610846406900F002000090D6
:1026B00000BF00BF002211463A20FEF724F93A205D
:1026C000FEF714F9002211463C20FEF71CF93C20CD
:1026D000FEF70CF908BD00000010024000B587B0FD
:1026E00000BF5048406940F400204E494861084608
:1026F000406900F40020019000BF00BF00BF084601
:10270000406940F4800048610846406900F4800058
:10271000019000BF00BF00BF0846406940F4003090
:1027200048610846406900F40030019000BF00BFD6
:1027300000BF0846406940F480204861084640696F
:1027400000F48020019000BF00BF00BF0846406930
:1027500040F4001048610846406900F40010019000
:1027600000BF00BF00BF0846406940F480104861C8
:102770000846406900F48010019000BF00BF0022AD
:1027800041F20E014FF09040FEF716F80022402172
:102790002548FEF711F8002220212448FEF70CF806
:1027A0000120029000200390049002A94FF0904075
:1027B000FDF71CFF41F20E00029001200390002063
:1027C0000490059002A94FF09040FDF70FFF042000
:1027D000029000200390049002A91448FDF706FF20
:1027E000402002900120039000200490059002A94F
:1027F0000D48FDF7FBFE802002900020039004901E
:1028000002A90948FDF7F2FE202002900120039062
:1028100000200490059002A90448FDF7E7FE07B0E8
:1028200000BD0000001002400014004800040048F1
:1028300010B5002211460C20FEF765F80C20FEF7BB
:1028400055F8002211460D20FEF75DF80D20FEF729
:102850004DF8002211460E20FEF755F80E20FEF727
:1028600045F8002211460F20FEF74DF80F20FEF725
:102870003DF8002211461B20FEF745F81B20FEF70D
:1028800035F8002211462420FEF73DF82420FEF7FB
:102890002DF8002211462520FEF735F82520FEF7F9
:1028A00025F8002211462720FEF72DF82720FEF7F5
:1028B0001DF8002211463620FEF725F83620FEF7D7
:1028C00015F8002211463D20FEF71DF83D20FEF7C9
:1028D0000DF8002211463F20FEF715F83F20FEF7C5
:1028E00005F810BD1FB52A482A4908600020486035
:1028F000002128488160C160016100202549C8622B
:102900000846FFF779F918B14E2123A000F044FDE5
:1029100000212048FFF7CDFA18B155211EA000F084
:102920003BFD00211B48FFF7E7FA18B15A211AA016
:1029300000F032FD01221D491648FFF7B9F918B120
:102940005F2115A000F028FD00200090019002906A
:1029500003906A4600210F48FFF782FA18B16A21F6
:102960000DA000F019FD002211490A48FFF764F894
:1029700018B1712108A000F00FFD00220D49054893
:10298000FFF75AF818B1782103A000F005FD1FBD2C
:1029900000600140000100202E2E2F436F72652F32
:1029A0005372632F73646164632E630040010E00F1
:1029B00040000600000108001FB5254825490860B1
:1029C00000204860002123488160C160016100202F
:1029D0002049C8620846FFF70FF918B18C211EA0E4
:1029E00000F0DAFC00211B48FFF763FA18B19321CD
:1029F00019A000F0D1FC00211648FFF77DFA18B1AC
:102A0000982115A000F0C8FC012218491148FFF7D1
:102A10004FF918B19D2110A000F0BEFC00200090DD
:102A20000190029003906A4600210A48FFF718FAC5
:102A300018B1A82108A000F0AFFC00220B490548FE
:102A4000FEF7FAFF18B1AF2103A000F0A5FC1FBDEF
:102A500000680140440100202E2E2F436F72652F25
:102A60005372632F73646164632E63000001080076
:102A700010B51048104908604FF48270486000217A
:102A80000D4881604FF44071C16000218161C161D6
:102A900010214162002181620721C162002101638E
:102AA0004163FFF7E7FA18B1472104A000F074FC76
:102AB00010BD000000380040100200202E2E2F43D1
:102AC0006F72652F5372632F7370692E630000005D
:102AD00010B50E480E4908604FF4165048600021AA
:102AE0000B488160C16001610C214161002181615D
:102AF000C16101620020064948620846FFF78EFC6A
:102B000018B1482103A000F047FC10BD0038014077
:102B1000FC0200202E2E2F436F72652F5372632FFD
:102B200075736172742E630010B50E480E4908600B
:102B30004FF41650486000210B488160C16001616C
:102B40000C21416100218161C161016200200649BF
:102B500048620846FFF762FC18B15D2103A000F04F
:102B60001BFC10BD004800406C0300202E2E2F439C
:102B70006F72652F5372632F75736172742E6300C9
:102B800000BFFEE77047000002480068C0F3022063
:102B9000704700000CED00E010B5002807DA0A07C6
:102BA000140E054A00F00F031B1FD45403E00A075C
:102BB000130E024A135410BD18ED00E000E400E0CB
:102BC0007047000010B50248FEF771FF10BD00000D
:102BD0000001002010B50248FEF769FF10BD00009B
:102BE0004401002070B5044600252068006840F0CC
:102BF000004021680860FDF7E5FD054606E0FDF7A9
:102C0000E1FD401BC82801D9032070BD2068806801
:102C100000F000400028F2D00020F6E701680968C3
:102C200021F0004102681160704710B50146002094
:102C30008AB2002305E002F0010404B1401C5208EE
:102C40005B1C092BF7D310BD10B50248FFF774F9D0
:102C500010BD00001002002070B505466C6A00200F
:102C6000A4F84600E0872046FFF764F970BD70477E
:102C700010B5FDF7ADFDFFF704FB10BD10B59AB020
:102C80000120109000041190002012900120149057
:102C900002201790C10318914FF4E011199110A868
:102CA000FEF7CAF918B1992121A000F075FB0F2099
:102CB0000B9002200C9000200D904FF480600E903D
:102CC00000200F9002210BA8FDF7C8FF18B1A72123
:102CD00017A000F061FB40F6050000900020029074
:102CE00004904FF0284008906846FDF779FE18B12F
:102CF000B1210FA000F050FB4FF40070FDF756FE1D
:102D00004FF40060FDF752FEFEF71EF94FF47A71A2
:102D1000B0FBF1F42046FFF79AFA0420FFF782FA9D
:102D200000221146501EFDF7EEFD1AB010BD000046
:102D30002E2E2F436F72652F5372632F6D61696E54
:102D40002E6300001948006840F4700017490860BD
:102D50001748006840F001001549086008464068BF
:102D60001449084012494860084600681249084062
:102D70000F4908600846006820F480200860084673
:102D8000406820F4FE0048600846C06A20F00F004A
:102D9000C8620846006B09490840054908630020DD
:102DA0008860C803014980390860704788ED00E0F9
:102DB000001002400CC07FF8FFFFF6FECCFC00FFC5
:102DC00010B50248FDF790FA10BD00002400002065
:102DD00010B50248FDF788FA10BD00001000002071
:102DE00090F8241001F0010139B10168496821F41B
:102DF0000031826A11430268516090F8241001F09A
:102E00000201022907D10168496821F48031C26AB0
:102E100011430268516090F8241001F00401042964
:102E200007D10168496821F48021026B11430268CF
:102E3000516090F8241001F00801082907D10168B9
:102E4000496821F40041426B11430268516090F8D7
:102E5000241001F01001102907D10168896821F4BC
:102E60008051826B11430268916090F8241001F048
:102E70002001202907D10168896821F40051C26B23
:102E800011430268916090F8241001F0400140293C
:102E900013D10168496821F48011026C1143026862
:102EA0005160016CB1F5801F07D10168496821F4B8
:102EB000C001426C11430268516090F8241001F087
:102EC0008001802907D10168496821F40021826CC2
:102ED000114302685160704738B504460025002050
:102EE000E066FDF76FFC05462068006800F008000A
:102EF00008280CD16FF07E402B4600224FF40011C1
:102F00000090204600F0FFF908B1032038BD20688A
:102F1000006800F0040004280CD16FF07E402B46BE
:102F200000224FF480010090204600F0ECF908B137
:102F30000320EBE7202084F8690084F86A0000BFD2
:102F4000002084F8680000BF00BFDFE770B50546C9
:102F50006C6A0020A4F85A00A4F852002046FFF73B
:102F600095F970BD0168096821F4907102681160DB
:102F70000168896821F0010102689160202180F8D0
:102F80006A10704710B504462068006820F04000C1
:102F900021680860202084F869002046FFF711FBB3
:102FA000002010BD2DE9F0410446B4F85C7094F89F
:102FB0006A00222833D12068858CA068B0F5805F34
:102FC00009D1206938B9666D05EA07003080606D67
:102FD000801C606505E0F8B22840626D511C616597
:102FE0001070B4F85A00401E80B2A4F85A00A0B97C
:102FF0002068006820F4907021680860206880686C
:1030000020F0010021688860202084F86A002046B2
:10301000FFF7D6FA0020BDE8F0810020FBE720682A
:10302000806940F00800216888610220F3E7000011
:103030002DE9F0470446002510260027A846A9469A
:103040002169A068084361690843E16940EA010514
:103050002068006849F20C618843284321680860B1
:103060002068406820F44050E168084321684860C7
:10307000216AA06940EA01052068806820F4306078
:1030800028432168886000BF7E492068884216D1A5
:103090007D48006B00F0030030B1012808D0022801
:1030A00008D0032808D101E0012607E0022605E048
:1030B000042603E0082601E0102600BF3CE0734927
:1030C0002068884219D17048006B00F4403048B144
:1030D000B0F5803F0AD0B0F5003F09D0B0F5403FD1
:1030E00008D101E0002607E0022605E0042603E0FF
:1030F000082601E0102600BF1EE0654920688842CE
:1031000019D16148006B00F4402048B1B0F5802F20
:103110000AD0B0F5002F09D0B0F5402F08D101E05A
:10312000002607E0022605E0042603E0082601E069
:10313000102600BF00E0102600BFE069B0F5004F88
:1031400052D1042E2BD005DC4EB1012E12D0022E0E
:103150003BD11AE0082E2DD0102E36D136E0FDF7E7
:10316000F9FE4000616800EB5100B0FBF1F01FFA7E
:1031700080F82EE0FDF704FF4000616800EB51008D
:10318000B0FBF1F01FFA80F823E04249606801EBE0
:1031900050006168B0FBF1F01FFA80F819E0FDF70C
:1031A00005FF4000616800EB5100B0FBF1F01FFA31
:1031B00080F80EE04FF48031606801EB50006168E8
:1031C000B0FBF1F01FFA80F803E000BF4FF00109F7
:1031D00000BF00BF4FF6F07008EA0007C8F34200D6
:1031E00007432068C7604AE0042E2CD005DC4EB1AE
:1031F000012E12D0022E3DD11AE0082E2ED0102E14
:1032000038D138E0FDF7A6FE616800EB5100B0FB55
:10321000F1F080B22168C86030E0FDF7B1FE61686E
:1032200000EB5100B0FBF1F080B22168C86025E0EE
:103230001949606801EB50006168B0FBF1F080B2A1
:103240002168C8601AE0FDF7B1FE616800EB51002B
:10325000B0FBF1F080B22168C8600FE04FF400418C
:10326000606801EB50006168B0FBF1F080B221684A
:10327000C86003E000BF4FF0010900BF00BF48462F
:10328000BDE8F087003801400010024000440040D3
:10329000004800400024F40000127A00014691F832
:1032A000690021282DD1B1F8520068B9086800687A
:1032B00020F080000B6818600868006840F040004B
:1032C0000B681860002070478868B0F5805F0BD1EC
:1032D000086948B9CA6C1088C0F308000B681885E3
:1032E000C86C801CC86405E0CB6C581CC864187896
:1032F0000B681885B1F85200401EA1F8520000205A
:10330000E1E70220DFE72DE9F04104460D461746CC
:103310009846069E21E0701CF8B12EB1FDF752FAD6
:10332000A0EB0800B04218D92068006820F4D070E3
:10333000216808602068806820F0010021688860AA
:10334000202084F8690084F86A0000BF002084F817
:10335000680000BF0320BDE8F0812068C0692840F4
:10336000A84201D1012000E00020B842D3D00020C3
:10337000F1E7000010B50248FEF78AFF10BD00001B
:10338000FC02002010B50248FEF782FF10BD0000CD
:103390006C03002000BFFEE700BFFEE702E008C8A4
:1033A000121F08C1002AFAD170477047002001E0BF
:1033B00001C1121F002AFBD17047FDF715FAFFF774
:1033C0005DFCFFF78BF9FFF759F9FFF7FDF8FFF701
:1033D0002DF9FFF74DFBFFF785FAFFF779FBFFF7B4
:1033E000A3FBFFF7E9FAFFF723FA00BFFEE70203AA
:1033F0000405060708090A0B0C0D0E0F1010010238
:10340000030405060708090A0B0C0D0E0F10000037
:103410000000000000000102030406070809000084
:1034200000000102030400004834000800000020EE
:10343000100000009C3300085834000810000020E1
:1034400058080000AC330008000000001000000025
:083450000100000000127A00E7
:040000050800018965
:00000001FF
